:020000040800F2
:100000000000022061020008252C0008E31E000801
:10001000C12A0008FB050008D58400080000000084
:10002000000000000000000000000000A101000826
:10003000290D000800000000FD0100086D420008C5
:100040007B0200087B0200087B0200087B0200089C
:100050007B0200087B0200087B0200087B0200088C
:100060007B0200087B0200087B0200087B0200087C
:100070007B0200087B0200087B0200087B0200086C
:100080007B0200087B0200087B0200087B0200085C
:100090007B0200087B0200087B020008310E00088A
:1000A0007B0200087B0200087B020008FD44000878
:1000B0007B0200087B0200087B0200087B0200082C
:1000C0007B0200087B0200087B0200087B0200081C
:1000D0007B0200087D7B00087B0200083D7D000854
:1000E0007B0200087B0200087B0200087B020008FC
:1000F0007B0200089D4800087B0200087B02000884
:100100007B0200087B0200087B0200087B020008DB
:10011000C9790008A17A00087B0200087B02000868
:100120007B020008990C00087B0200087B02000893
:100130007B0200087B0200087B0200087B020008AB
:100140007B0200087B0200087B0200087B0200089B
:100150007B0200087B0200087B0200084D7D00083E
:100160007B0200087B0200087B0200087B0200087B
:100170007B0200087B0200087B02000800000000F0
:100180007B0200087B020008DFF810D000F0EEF8D8
:1001900000480047798A0008AFF300800000022081
:1001A0002C4B19680868B0E8F04F80F30988BFF35A
:1001B0006F8F4FF0000080F311887047000000003F
:1001C00008480068006880F308884FF0000080F35A
:1001D000148862B661B6BFF34F8FBFF36F8F00DF35
:1001E00000BF00BF08ED00E0DFF80C00016841F43B
:1001F00070010160704700BF88ED00E0EFF30980F7
:10020000BFF36F8F134B1A681EF0100F08BF20ED5D
:10021000108A20E9F04F106009B44FF0B00080F36D
:100220001188BFF34F8FBFF36F8F09F021FC4FF0A0
:10023000000080F3118809BC19680868B0E8F04F25
:100240001EF0100F08BFB0EC108A80F30988BFF3CE
:100250006F8F7047CC040020EFF3058070470000DB
:100260000648804706480047FEE7FEE7FEE7FEE750
:10027000FEE7FEE7FEE7FEE7FEE7FEE78144000853
:10028000890100082DE9F05F0546002092469B4653
:1002900088460646814640241BE02846414647469C
:1002A000224600F053F853465A46C01A914110D3E3
:1002B00011461846224600F03AF82D1A67EB01085D
:1002C0004F4622460120002100F031F817EB0009CB
:1002D0004E41201EA4F10104DFDC484631462A4687
:1002E0004346BDE8F09F40EA01039B0703D009E0C5
:1002F00008C9121F08C0042AFAD203E011F8013B12
:1003000000F8013B521EF9D27047D2B201E000F86A
:10031000012B491EFBD270470022F6E710B51346A9
:100320000A4604461946FFF7F0FF204610BD202A72
:1003300004DB203A00FA02F1002070479140C2F13C
:10034000200320FA03F3194390407047202A04DB6E
:10035000203A21FA02F00021704721FA02F3D0403E
:10036000C2F120029140084319467047064C074DE0
:1003700006E0E06840F0010394E807009847103475
:10038000AC42F6D3FFF704FF00F0030830F0030897
:1003900070B58C1810F8015B15F0070301D110F847
:1003A000013B2A1106D110F8012B03E010F8016B74
:1003B00001F8016B5B1EF9D12B0705D40023521EF7
:1003C0000DD401F8013BFAE710F8013BCB1A921C5F
:1003D00003E013F8015B01F8015B521EF9D5A1425D
:1003E000D8D3002070BD000070B58AB004460E4618
:1003F00025780B486A46294643690A4898470DF113
:100400000601684608F06BF808208DF80400022009
:100410008DF805000448016801A888470AB070BD3E
:100420004C01002000480040D801002070B58AB07F
:1004300004460E4625780B486A462946436A0A4810
:1004400098470DF10601684608F049F80E208DF82E
:10045000040002208DF805000448016801A88847BF
:100460000AB070BD4C01002000480040D8010020B7
:1004700070B58AB004460E46257809A9601C00F0C4
:10048000C1F80C48294682680B4890470948BDF8D6
:100490002420294603690848984703208DF8000066
:1004A00000208DF8010005480168684688470AB0B9
:1004B00070BD00004C01002000480040D801002021
:1004C00070B58AB004460E4625780B4829468268E6
:1004D0000A48904708482946C269084890471020B2
:1004E0008DF8040000208DF805000548016801A87A
:1004F00088470AB070BD00004C0100200048004051
:10050000D801002070B58AB004460E46257809A9A6
:10051000601C00F077F80C48294682680B48904729
:100520000948036ABDF8240002B2294607489847E3
:1005300011208DF8000000208DF8010004480168AA
:10054000684688470AB070BD4C0100200048004052
:10055000D801002070B58AB004460E4625780E48B2
:10056000294682680D4890470B48294682690B4806
:10057000904709484FF400722946036A0748984794
:100580000F208DF8040000208DF805000448016854
:1005900001A888470AB070BD4C0100200048004007
:1005A000D801002070470000F0B5059CC0EBC005E5
:1005B0000F4E46F82510C0EBC00506EB85056A60B6
:1005C000C0EBC00506EB85052B72C0EBC00506EB42
:1005D0008505EC600025C0EBC006054F07EB8606DD
:1005E00035745525C0EBC00607EB86067561F0BD76
:1005F0008C23002010B5029C10BD00BFFEE70288CE
:100600000A80704702880A80704702680A60704753
:1006100002680A60704702680A60704702680A60F0
:10062000704701468878CB7818440B79C2180020AF
:1006300005E04B1D1B5C13449AB2431CD8B2CB7827
:100640009B1E8342F5DCD04382B2D2B21046704783
:10065000024610785378C118002005E0931C1B5CFB
:100660000B4499B2431CD8B213789B1E8342F5DC2D
:10067000C84381B2C9B208467047000030B58BB09C
:1006800004460D46207809900E480AAA9DF82410C9
:1006900003680D4898470DF1020109A807F028FFEB
:1006A0000DF103000A99016000BF16208DF80000CB
:1006B00005208DF8010005480168684688470BB0A1
:1006C00030BD0000FC03002000500040D801002095
:1006D00010B5044604F1240000F0E8FC18B12046EF
:1006E00007F034F901E00020E06510BD70B5054663
:1006F0000C46072D5FD2DFE805F0040E18283642BD
:10070000500014B900202D490870012C02D101209D
:100710002A49087050E014B9012028494870012C7A
:1007200002D100202549487046E0022C0CD1234814
:100730008078032805DA21488078401C1F4988709A
:1007400002E000201D49887036E024B901201B49D1
:10075000C87002F079F9012C04D100201749C87043
:1007600002F05AF928E01CB901201549896C08707B
:10077000012C03D100201249896C08701CE024B9B7
:1007800064220021022008F0BFF8012C04D10022CD
:100790001146022008F0B8F80EE024B964220121C5
:1007A000022008F0B1F8012C04D10022012102201E
:1007B00008F0AAF800E000BF00BF70BDE80000200C
:1007C000900300203EB504460748084900234FF433
:1007D0000072CDE90041029005A1094809F042FAF2
:1007E000084908603EBD0000D0180020D01000204D
:1007F0004F646F6D657472795F5461736B000000B4
:10080000DD4A0008300100203EB50446074808498B
:1008100000234FF40072CDE90041029005A1094880
:1008200009F020FA084908603EBD00006C21002054
:100830006C1900205465726D696E616C5F54617350
:100840006B000000154B0008400100203EB5044637
:100850000648074900234022CDE90041029005A146
:10086000074809F0FFF9074908603EBD5025002000
:1008700050240020427574746F6E5F5461736B0076
:10088000794B00083C0300203EB504460748084960
:1008900000234FF40072CDE90041029005A1084801
:1008A00009F0E0F9074908603EBD0000A42D0020D2
:1008B000A425002047616D655F5461736B000000E3
:1008C000254C0008480300203EB504460748084967
:1008D00000234FF40072CDE90041029005A10948C0
:1008E00009F0C0F9084908603EBD0000F835002055
:1008F000F82D0020477275625F50696C655F546126
:10090000736B0000BD4C0008540300203EB5044644
:100910000748084900234FF40072CDE900410290D6
:1009200005A10A4809F09EF9094908603EBD00008A
:100930004C3E00204C36002052656C656173655F4B
:1009400050696C655F5461736B0000002D4D0008A9
:10095000DC0300203EB504460748084900234FF455
:100960000072CDE90041029005A1074809F07AF92B
:10097000064908603EBD0000A0460020A03E0020C1
:1009800044435F5461736B009D4D0008E8030020F1
:100990003EB504460748084900234FF40072CDE9EC
:1009A0000041029005A1084809F05CF90749086078
:1009B0003EBD0000F44E0020F44600204443315F69
:1009C0007461736B00000000154E000818040020CD
:1009D0003EB504460748084900234FF40072CDE9AC
:1009E0000041029005A1084809F03CF90749086058
:1009F0003EBD000048570020484F00204443325F6E
:100A00007461736B000000007D4E00082404002018
:100A10003EB504460748084900234FF40072CDE96B
:100A20000041029005A1084809F01CF90749086037
:100A30003EBD00009C5F00209C5700204443305F77
:100A40005461736B00000000E54E00083004002084
:100A50003EB504460748084900234FF40072CDE92B
:100A60000041029005A1084809F0FCF80749086018
:100A70003EBD0000F0670020F05F0020736F7274CD
:100A80005F5461736B0000008D4F00084404002028
:100A90003EB504460748084900234FF40072CDE9EB
:100AA0000041029005A1084809F0DCF807490860F8
:100AB0003EBD000044700020446800206578705FEF
:100AC0005461736B000000007D6200087804002010
:100AD0003EB504460748084900234FF40072CDE9AB
:100AE0000041029005A1094809F0BCF808490860D6
:100AF0003EBD000098780020987000205A65726F03
:100B00005F53746174655F5461736B00D97400083E
:100B1000AC0400203EB504460748084900234FF4C2
:100B20000072CDE90041029005A1094809F09AF848
:100B3000084908603EBD0000EC800020EC780020F1
:100B4000677269705F63616C5F5461736B00000072
:100B50003D760008BC040020F0B58BB004460F467B
:100B60002578667801A9A01CFFF74CFDBDF804208C
:100B70003146284607F0C8FE16208DF808000020F0
:100B80008DF809000248016802A888470BB0F0BD43
:100B9000D801002070B58AB004460E4620780D4971
:100BA000496908700B488169601CFFF737FD0A49E5
:100BB00048688047054608F02FFE16208DF804008F
:100BC00000208DF805000548016801A888470AB093
:100BD00070BD000090030020EC030020D80100202D
:100BE000F0B589B004460E4625789DB92548C169FF
:100BF000601CFFF713FD2348C069006800F5FA4048
:100C00002049C9690860204948688047074608F0BC
:100C100003FE2AE0012D13D11A48016A601CFFF778
:100C2000FDFC1848006A006800F5FA401549096A99
:100C30000860164948688047074608F0EDFD14E053
:100C4000022D12D10F48416A601CFFF7E7FC0D48E6
:100C5000406A006800F5FA400A49496A08600C4990
:100C600048688047074608F0D7FD19208DF8000036
:100C700000208DF80100074801686846884709B0E0
:100C8000F0BD0000900300203C0400201C04002064
:100C900028040020D801002010B500F001F810BD94
:100CA00010B500BF1D480068C0F3C020A0B300BF4E
:100CB0004FF400601949886000BF08460121184AB6
:100CC000525C8258C2F3001232B300BF144A525C25
:100CD000825822F01002124B5B5CC25000BF00BF72
:100CE0000F4A525C825822F001020D4B5B5CC250ED
:100CF00000BF80150B49096A81430A4A116200BF8F
:100D0000104601F0DDFB00BF0648006820F001003E
:100D10000449086000BF00BF10BD0000006402402D
:100D2000E7A00008000401407047000010B5044629
:100D300008F0E8FC2021124801F089FB114A52F822
:100D40002410114A52F8240001F013FBA8210C488A
:100D500001F090FB00BF0A4801F062FB0028FAD1C5
:100D6000084A52F82410084A52F8240001F010FBF7
:100D70000021034801F06BFB08F0EEFC10BD000001
:100D8000003001402000002010000020FEB5044685
:100D90000D46002002900121CDE90010034802AB6E
:100DA0001822294686682046B047FEBD80010020F3
:100DB00010B50446024801692046884710BD00006E
:100DC0005000002010B586B004460D4850F82400AD
:100DD00000900120019000200390049003200290D5
:100DE000084951F82400694601F027FA204603F02B
:100DF000CDFD054951F8240001F06CFB06B010BD93
:100E0000BC0200209C0200201C020020FEB504460B
:100E10000D46002002900121CDE90010034802ABED
:100E20001922294686682046B047FEBD8001002071
:100E30004FF48070064908600648006840F400409E
:100E40000449086000200449C96808707047000020
:100E5000143C0140140C0240900300201B48006821
:100E600020F44030194908600846C06840F400305A
:100E7000C8600846C06820F48030C8601448006923
:100E800020F00F01124801611248006840F48070A0
:100E90001049086088150F49083108600D480C3862
:100EA000006840F480700B490C3908601720002856
:100EB00009DB00F01F02012191404209920002F17A
:100EC000E022C2F8001100BF70470000000002409D
:100ED000003801400C3C014010B5044608F012FCFB
:100EE0002021124801F0B3FA114A52F82410114A95
:100EF00052F8240001F03DFAB8210C4801F0BAFA8A
:100F000000BF0A4801F08CFA0028FAD1084A52F8CA
:100F10002410084A52F8240001F03AFA002103484C
:100F200001F095FA08F018FC10BD000000300140F7
:100F30002000002010000020FEB504460D460120D0
:100F4000029000200121CDE90010044802AB1822D4
:100F5000294686682046B047FEBD0000800100207B
:100F600010B504460248C1682046884710BD0000FD
:100F70005000002010B586B004460E4850F82400FA
:100F80000090022001900020039004900320029022
:100F900002200590084951F82400694601F04DF9F6
:100FA000204603F00FFD054951F8240001F092FAA4
:100FB00006B010BDBC0200209C0200201C020020D4
:100FC000FEB504460D460120029000200121CDE926
:100FD0000010044802AB1922294686682046B04713
:100FE000FEBD00008001002030B58DB004460D46E6
:100FF00001A92046FFF70CFB02A9201DFFF708FB03
:1010000003A904F10800FFF703FB01F01DFD1348DD
:10101000C16801A888479DED010AB5EEC00AF1EE4E
:1010200010FA0FD19DED020AB5EEC00AF1EE10FAEA
:1010300008D19DED030AB5EEC00AF1EE10FA01D118
:1010400001F0EAFC04208DF8100000208DF811005A
:101050000348016804A888470DB030BD0003002094
:10106000D801002070B504460D466069401CE16857
:10107000884201D1012070BD29462269A068FFF78E
:1010800032F904F10800D4E90323216800F01FF8C5
:101090006069401C60610020EDE710B501604160AF
:1010A0008160C26003610024446110BD014648694B
:1010B00008B1012070470020FCE701464869401C48
:1010C000CA68904201D0012070470020FCE730B58B
:1010D000541E04FB03140568A54203D204681C4493
:1010E000046000E0016030BD70B504460D466069E3
:1010F00008B9012070BD284622696168FFF7F3F83E
:10110000201DD4E903232168FFF7E1FF6069401E39
:1011100060610020EEE7704700B587B04FF4806053
:1011200001900220029001200490002005900320ED
:1011300003900720069001A9FE4801F07EF84FF4C5
:10114000007001900220029000200490059003207E
:1011500003900720069001A9F64801F06EF82020C0
:10116000019000200290049005900320039001A9B3
:10117000F14801F062F84021EF4801F003F9402006
:10118000019001200290002004900590032003901C
:1011900001A9E94801F051F84FF480600190022064
:1011A00002900020049005900320039008200690F0
:1011B00001A9E24801F041F84FF40041DD4801F097
:1011C000E1F84FF4004001900120029000200490CB
:1011D00005900320039001A9D64801F02EF84FF4A2
:1011E000807001900220029000200490059003205E
:1011F00003900720069001A9CF4801F01EF84FF494
:101200000071CD4801F0BEF84FF40070019001204C
:1012100002900020049005900320039001A9C64885
:1012200001F00BF8042001900220029001200490AC
:1012300000200590032003900820069001A9BE48D5
:1012400000F0FBFF4FF4805001900220029000203C
:1012500004900590032003900820069001A9B74848
:1012600000F0EBFF4020019002200290002004904B
:101270000590032003900820069001A9AF4800F0D4
:10128000DCFF8021AD4801F07DF880200190012035
:1012900002900020049005900320039001A9A74824
:1012A00000F0CBFF1021A34801F076F81020019048
:1012B000012002900020049005900320039001A9D2
:1012C0009C4800F0BAFFE02001900220029000202C
:1012D00004900590032003900520069001A99548ED
:1012E00000F0ABFF8021964801F056F88020019075
:1012F000012002900020049005900320039001A992
:101300008F4800F09AFF4FF480618B4801F044F859
:101310004FF480600190012002900020049005901D
:101320000320039001A9844800F087FF4FF4006177
:10133000814801F031F84FF40060019001200290E3
:101340000020049005900320039001A97A4800F042
:1013500074FF4FF40071794801F01EF84FF40070EB
:10136000019001200290002004900590032003903A
:1013700001A9724800F061FF4FF400700190022053
:101380000290002004900590032003900120069015
:1013900001A96B4800F051FF4FF40060019002205A
:1013A00002900020049005900320039001200690F5
:1013B00001A9634800F041FF4FF400500190022062
:1013C00002900020049005900320039001200690D5
:1013D00001A95B4800F031FF4FF4804001900220EA
:1013E00002900020049005900320039001200690B5
:1013F00001A9534800F021FF4FF48071504800F0DC
:10140000CBFF4FF4807001900120029000200490E7
:1014100005900320039001A9494800F00EFF4FF406
:101420008061474800F0B8FF4FF4806001900120D0
:1014300002900020049005900320039001A94048E9
:1014400000F0FBFE4FF480513D4800F0A5FF4FF443
:10145000805001900120029000200490059003200C
:10146000039001A9364800F0E8FE4FF400413448EB
:1014700000F092FF4FF40040019001200290002004
:10148000049005900320039001A92D4800F0D5FE9B
:101490004FF400400190012002900020049005903C
:1014A0000320039001A9244800F0C7FE4FF48040B8
:1014B00001900120029000200490059003200390E9
:1014C00001A91D4800F0B9FE4FF400500190012021
:1014D00002900020049005900320039001A9164873
:1014E00000F0ABFE4FF480500190012002900020EC
:1014F000049005900320039001A90F4800F09DFE81
:101500000120019002900020049005900320039098
:1015100001A9084800F091FE0220019001200290EC
:101520000020049005900320039001A9014800F0D9
:1015300084FE07E000000240000C02400008024068
:10154000001002400420019001200290002004902D
:1015500005900320039001A9104800F06EFE0820BA
:101560000190012002900020049005900320039038
:1015700001A90A4800F061FE4FF48070019002203A
:101580000290002004900120059003200390069013
:1015900001A9034800F051FE07B000BD0000024061
:1015A0000008024000B587B04FF4004001900020D1
:1015B000029001200490022005900320039001A9CD
:1015C0002C4800F03AFE40200190002002900120BB
:1015D0000490022005900320039001A9264800F002
:1015E0002CFE202001900020029001200490022077
:1015F00005900320039001A91F4800F01EFE04205F
:101600000190002002900120049002200590032008
:10161000039001A9184800F010FE1020019000204E
:10162000029001200490022005900320039001A95C
:10163000114800F002FE08200190002002900120D5
:101640000490022005900320039001A90A4800F0AD
:10165000F4FD01200190002002900120049002205E
:1016600005900320039001A9034800F0E6FD07B0B0
:1016700000BD00000008024000100240FEB5054613
:101680000E461446162002901048012202A9036853
:10169000284698470D480A226946436828469847D5
:1016A00007460FB90120FEBD9DF800009DF8081007
:1016B000884201D00220F6E731466846FEF7ABFFCC
:1016C000214601A8FEF7A7FF0020ECE70C0400204C
:1016D000F0B587B005460E46144603A8009013489F
:1016E00002232422314647682846B84707E04FF0D6
:1016F00080500F490860BFF34F8FBFF36F8F9DF885
:101700000C000028F3D002A904A8FEF778FFBDF86A
:1017100008004FF49671484340F2FF3190FBF1F01E
:1017200020809DF80D0007B0F0BD00008001002072
:1017300004ED00E0064991ED000A80ED000A91ED0C
:10174000010A80ED010A91ED020A80ED020A70475C
:101750007423002077B583B0054614461348012250
:1017600004A903682846984710480A2201A943683B
:1017700028469847064616B9012006B070BD9DF868
:1017800004009DF81010884201D00220F5E7694658
:10179000481DFEF740FF064900980968401AC82115
:1017A00090FBF1F020600020E7E700000C0400202F
:1017B000F80300202DE9F04104460E4615460027A7
:1017C00007F0A0FF20212C4800F041FE2B4A52F8E0
:1017D00024102B4A52F8240000F0CBFD06F01F0025
:1017E00040F02001244800F045FE00BF224800F0F0
:1017F00017FE0028FAD103E000BF1F48007B00BF9E
:101800001D4800F017FE0028F6D121E01B4A52F8CF
:1018100024101B4A52F8240000F0BAFD681EC5B21D
:10182000164A52F82410164A52F8240000F0A1FD7E
:101830000021114800F01EFE00BF0F4800F0F0FD2F
:101840000028FAD10C4800F0FFFDE900884007436A
:10185000002DDBDC094A52F82410094A52F8240012
:1018600000F096FD0021044800F0F1FD07F074FF40
:101870003846BDE8F0810000003001402000002023
:1018800010000020F0B587B005460E46144603A8A8
:101890000090154802232822314647682846B84759
:1018A00007E04FF0805011490860BFF34F8FBFF33E
:1018B0006F8F9DF80C000028F3D002A904A8FEF752
:1018C0009EFEBDF90800B0F5806F05DBBDF908008C
:1018D000C0F5806000B20290BDF9080020809DF83C
:1018E0000D0007B0F0BD00008001002004ED00E015
:1018F0000146024850F8210070470000D022002025
:10190000F0B585B006460F4614461D4601A8009066
:101910001048082304223946D0F804C03046E04776
:1019200007E04FF080500C490860BFF34F8FBFF3C2
:101930006F8F9DF804000028F3D0214602A8FEF71F
:1019400064FE294603A8FEF760FE9DF8050005B079
:10195000F0BD00008001002004ED00E030B58DB046
:1019600004460D460F48816801A888470DF1120111
:1019700001A806F0BAFD0DF1160102A806F0B5FDAA
:101980000DF11A0103A806F0B0FD07208DF8100034
:101990000C208DF811000448016804A888470DB098
:1019A00030BD000000030020D801002030B58DB00C
:1019B00004460D460F48016901A888470DF1120140
:1019C00001A806F092FD0DF1160102A806F08DFDAA
:1019D0000DF11A0103A806F088FD05208DF810000E
:1019E0000C208DF811000448016804A888470DB048
:1019F00030BD000000030020D80100203EB50446A1
:101A00000D4A117910680D4A53696A4698470A4A87
:101A1000117B9068094A536901AA9847064A117DCB
:101A20001069064A536902AA984705482146826808
:101A3000684690473EBD000018030020B00100201A
:101A4000D80000200146C1EBC100024A02EB800031
:101A5000007C70478C23002070B5044607F052FECE
:101A60002021354800F0F3FC344A52F82410344A5F
:101A700052F8240000F07DFCD0212F4800F0FAFC41
:101A800000BF2D4800F0CCFC0028FAD103E000BFD5
:101A90002948007B00BF284800F0CCFC0028F6D184
:101AA000264A52F82410264A52F8240000F070FC0E
:101AB000224A52F82410224A52F8240000F059FC1D
:101AC00000211D4800F0D6FC00BF1B4800F0A8FC18
:101AD0000028FAD1184800F0B7FC0502174A52F85E
:101AE0002410174A52F8240000F052FC134A52F80E
:101AF0002410134A52F8240000F03BFC00210E4849
:101B000000F0B8FC00BF0C4800F08AFC0028FAD1B5
:101B1000094800F099FC0543084A52F82410084A85
:101B200052F8240000F034FC0021034800F08FFC40
:101B300007F012FE284670BD003001402000002052
:101B400010000020F0B585B005460E46144601A8E9
:101B500000900E4804231022314647682846B847B3
:101B600007E04FF080500A490860BFF34F8FBFF382
:101B70006F8F9DF804000028F3D0214602A8FEF7DD
:101B800044FD9DF8050005B0F0BD00008001002077
:101B900004ED00E0014800687047000030010020BB
:101BA00001480068704700004001002001480068BB
:101BB000704700003C0300200148006870470000A7
:101BC00048030020014800687047000054030020CB
:101BD0000148006870470000DC03002001480068ED
:101BE00070470000E80300200148006870470000CB
:101BF00018040020014800687047000024040020F9
:101C00000148006870470000300400200148006867
:101C1000704700004404002001480068704700003D
:101C2000780400200148006870470000AC040020E0
:101C30000148006870470000BC040020F0B585B082
:101C400005460E46144601A800900E4804231422AF
:101C5000314647682846B84707E04FF080500A49A8
:101C60000860BFF34F8FBFF36F8F9DF8040000280B
:101C7000F3D0214602A8FEF7C8FC9DF8050005B088
:101C8000F0BD00008001002004ED00E010B5044626
:101C90000248214642680248904710BDF4020020E5
:101CA0000010014070B58AB006460C461148006825
:101CB000016830468847054605F13C00FFF7F6F914
:101CC000B0B101A905F13C00FFF70EFA9DF805003F
:101CD00020709DF80400801E60709DF80400821E34
:101CE0000DF10601A01CFEF7FEFA01200AB070BD3E
:101CF0000020FBE7F002002070B58AB005460E46D2
:101D0000084948688047044607F086FD20208DF882
:101D1000040000208DF805000348016801A88847E9
:101D20000AB070BDC0040020D801002070B58AB090
:101D300004460E460948046009494868804705463C
:101D400007F06AFD09208DF8040000208DF80500D9
:101D50000448016801A888470AB070BD90030020BC
:101D600058030020D80100202DE9F0418CB0064630
:101D700088463578012D01D1052404E0022D01D1DA
:101D8000062400E004242F46204802AA394643696D
:101D90001F4898471D4801AA214643691C48984797
:101DA00000200090BDF80800262801DB012000E09B
:101DB0000020BDF808102A2901DC012100E00021E3
:101DC0000840BDF80410992901DB012100E0002141
:101DD0000840BDF804109D2901DC012100E000212C
:101DE000084008B1012000900DF10E01684606F090
:101DF0007FFB0B208DF80C0001208DF80D000548AD
:101E0000016803A888470CB0BDE8F0814C010020B0
:101E100000480040D80100201B48006840F0805076
:101E2000194908600846006820F00050086008461C
:101E3000006840F0804008600846006820F00040DC
:101E400008601248006840F4805010490860084655
:101E5000006820F4005008600B48006840F0806083
:101E6000094908600846006820F0006008600748DB
:101E7000006840F48060054908600846006820F466
:101E80000060086070470000000802400010024037
:101E900010B5012000F0C2F8022000F0BFF80420C5
:101EA00000F0BCF8082000F0B9F8102000F0B6F8F7
:101EB0004FF4800000F0C0F84FF4800000F0C4F848
:101EC0004FF4800000F0AAF84FF4001000F0B4F8CE
:101ED0004FF4001000F0B8F84FF4001000F09EF836
:101EE00010BD08B50120009000BF00980028FCD06C
:101EF00000BF00BF08BD000010B50446084951F8F6
:101F0000240001F051FB0A2007F058FC044951F865
:101F1000240001F091FB0A2007F050FC10BD0000E6
:101F20000000002070B50125002425E004EB4400EA
:101F30001C4951F82000E8B104EB440051F820009E
:101F4000401E04EB4401174A42F8210004EB440010
:101F5000114651F8200060B904EB44020B4603EB34
:101F60008202906804EB440203EB820251688847C6
:101F700000E00025601CC4B2062CD7DB8DB100BF89
:101F80000948006820F001000749086000BF00BF51
:101F90000846C06820F00100C86000BF0020034967
:101FA000087070BD24190020002000403C01002072
:101FB00010B50446024951F82400804710BD0000C6
:101FC000F001002010B59FED110A114880ED000AC4
:101FD0009FED0E0A80ED010A9FED0C0A80ED020ACA
:101FE0000C4A117910680C4A936900229847094AF3
:101FF000117B9068084A936900229847054A117D31
:102000001069054A93690022984710BD000000003E
:102010007423002018030020B001002008B50549F2
:1020200009680143034A11601146096801400091A3
:1020300000BF08BD30380240024909680143014A27
:102040001160704710380240024909688143014A13
:10205000116070471038024008B50549096801430E
:10206000034A1160114609680140009100BF08BD94
:1020700040380240024909680143014A1160704733
:1020800020380240024909688143014A11607047C3
:102090002038024008B5054909680143034A116028
:1020A000114609680140009100BF08BD4438024054
:1020B000024909680143014A11607047243802400F
:1020C000024909688143014A11607047243802407F
:1020D00070B505460C46034850F82410284688473A
:1020E00070BD0000F40000202021816070474FF493
:1020F0000061816070474FF40011816070474FF0BC
:102100000061816070472021C16070474FF4006119
:10211000C16070474FF40011C16070474FF000611B
:10212000C160704770B504460D461646F06A00B1AE
:1021300000BFD6E90212114332691143726911439B
:10214000B2691143F2691143B26A41EA02002949B6
:10215000495D6158284A11400143264A525DA15009
:1021600000BFF06A30B3D6E90B01224A525D224427
:10217000526922F0070240EA01031A431D4B5B5DDE
:1021800023445A6100BF706B1A49495D615821F0C0
:10219000C0710143174A525DA15000BFB06B154991
:1021A000495D615821F4C0010143124A525DA150BA
:1021B00000BF00BF70680F49495D2144C86000BF7F
:1021C00030680C49495D2144886000BF306A094984
:1021D000495D214449686FF30F010143054A525D8F
:1021E0002244516000BF29462046726A00F006F87A
:1021F000002070BD2AA100081F80FCFF10B5054B10
:102200005B5CC35823F060631343024C645C03516E
:1022100010BD00002AA1000800210160416081601A
:10222000C160016141618161C1610162416281629C
:10223000C1620163416381637047F0B502460B469A
:1022400000240021186890FAA0F0B0FA80F48AE027
:102250000125A540186800EA050100297DD05868CD
:10226000012802D0586802281CD19868956891FA14
:10227000A1F6B6FA86F677000326BE40B54391FA7A
:10228000A1F6B6FA86F6760000FA06F635439560B2
:1022900000BFD86855688D4301FB00F63543556093
:1022A00000BF00BF1869D56891FAA1F6B6FA86F6A4
:1022B00077000326BE40B54391FAA1F6B6FA86F63A
:1022C000760000FA06F63543D56000BF586802284C
:1022D00031D191FAA1F0B0FA80F0082814D25869EF
:1022E000156A91FAA1F6B6FA86F6B7000F26BE4037
:1022F000B54391FAA1F6B6FA86F6B60000FA06F6EC
:102300003543156200BF16E05869556A0E0A96FA01
:10231000A6F6B6FA86F6B7000F26BE40B5430E0AFB
:1023200096FAA6F6B6FA86F6B60000FA06F6354331
:10233000556200BF00BF5868156891FAA1F6B6FA59
:1023400086F677000326BE40B54391FAA1F6B6FAA9
:1023500086F6760000FA06F600E003E035431560E5
:1023600000BF00BF641C1868E04000287FF470AF15
:10237000F0BD0A04826170470A04826170470A0452
:10238000826170470A04826170470A048261704763
:1023900081617047816170478161704781617047D9
:1023A00010B5426921EA020302EA010443EA044348
:1023B000836110BD30B50246012300BF1068C0F331
:1023C000801038BBD1E9000420438C682043CC68DE
:1023D00020430C6920434C6920438C692043CC691D
:1023E00020430C6A204314684FF6BF75AC4320436A
:1023F0001060506820F004004C6940EA14405060BE
:10240000086AB0F5005F04D1486A84B2146100BF65
:1024100000BF0023D06920F40060D061184630BDB1
:1024200001468868C0F3C010704701468868C0F351
:10243000C01070470146886800F0010070470146EF
:102440008868C0F3400070470146087B7047026807
:1024500022F038020A4302607047002101604160A7
:102460008160C160016141618161C16101620721D7
:10247000416270470173704701737047026A8A4373
:1024800002627047416841F0010141607047016894
:1024900041F0800101607047416C41F400414164AA
:1024A0007047016841F0010101607047C16841F463
:1024B0008071C1607047416941F0200141617047FE
:1024C000416941F0200141617047416941F00101DA
:1024D00041617047416941F001014161704700006D
:1024E000F0B51346012901D1002516E0042901D1D8
:1024F000012512E0102901D102250EE0402901D169
:1025000003250AE0B1F5807F01D1042505E0B1F58E
:10251000806F01D1052500E006252A46134DAE5CEB
:1025200000F1180574192568114EB75C0326BE40EA
:10253000B5432560056A0F4EB75C0226BE40B54321
:1025400003F002060B4FBF5CBE4035430562456891
:10255000094EB75C4FF48076BE40B54303F48076F5
:10256000054FBF5CBE4035434560F0BDBCA00008D0
:10257000C3A00008D1A00008D8A0000870B502468A
:10258000012901D1002416E0042901D1012412E01F
:10259000102901D102240EE0402901D103240AE0D0
:1025A000B1F5807F01D1042405E0B1F5806F01D140
:1025B000052400E006242346064CE55C02F11804DD
:1025C00028190468044DEE5C0425B5402C430460D2
:1025D00070BD0000BCA00008C3A0000870B5024692
:1025E000012901D1002416E0042901D1012412E0BF
:1025F000102901D102240EE0402901D103240AE070
:10260000B1F5807F01D1042405E0B1F5806F01D1DF
:10261000052400E006242346064CE55C02F118047C
:1026200028190468044DEE5C0825B5402C4304606D
:1026300070BD0000BCA00008C3A00008C1637047C3
:10264000F0B503461446012901D1002516E00429FE
:1026500001D1012512E0102901D102250EE0402907
:1026600001D103250AE0B1F5807F01D1042505E001
:10267000B1F5806F01D1052500E006252846094DFA
:102680002E5C03F1180572191568074E375C732626
:10269000BE40B543044E365C04FA06F63543156079
:1026A000F0BD0000BCA00008C3A00008C1627047D4
:1026B000026822F440720A4302607047826844F262
:1026C00007039A430A438260704741627047026879
:1026D00022F070020A43026070478162704708B5B9
:1026E0000168009100BF4168009100BF08BD6FF014
:1026F000400101607047016921F490410161416925
:1027000021F02A0141617047016921F49041016182
:10271000416921F022014161416941F008014161B3
:102720007047C16841F40051C160704700BF00BFED
:1027300000F1140252E8002F42F0400100F11402AF
:1027400042E80013002BF3D100BF704700BF00BF69
:1027500000F1140252E8002F42F0800100F114024F
:1027600042E80013002BF3D100BF70472DE9FC5F56
:1027700006460C4691461D46B9F5004F68D1022029
:10278000A0FB057003461920A4FB00A001463A46B1
:102790005046FDF777FD6421B0FBF1F04FEA001AD7
:1027A0000220A0FB05710B461920A4FB00B13A469C
:1027B0005846FDF767FD83460220A0FB05700346DF
:1027C0001920A4FB00013A46CDE90001FDF75AFDAE
:1027D0006421B0FBF1F000EBC00101EB0010ABEBAA
:1027E0008000322101EBC0006421B0FBF1F000F069
:1027F000F8000AEB400A0220A0FB057003461920EE
:10280000A4FB00B13A465846FDF73CFD8346022042
:10281000A0FB057003461920A4FB00013A46CDE950
:102820000001FDF72FFD6421B0FBF1F000EBC001CA
:1028300001EB0010ABEB8000322101EBC000642102
:10284000B0FBF1F000F00700504480B2B06067E0E8
:102850000420A0FB057003461920A4FB00A001463C
:102860003A465046FDF70EFD82460420A0FB057156
:102870001920A4FB00B084463A460B4658466146F0
:10288000FDF700FD6421B0FBF1F000EBC00101EBAE
:102890000010AAEB8000322101EB00106421B0FB94
:1028A000F1F000F0F00A0420A0FB057003461920A7
:1028B000A4FB00B001463A465846FDF7E3FC64210C
:1028C000B0FBF1F00AEB001A0420A0FB05700346F0
:1028D0001920A4FB00B13A465846FDF7D3FC8346C5
:1028E0000420A0FB057003461920A4FB00013A4612
:1028F000CDE90001FDF7C6FC6421B0FBF1F000EB6F
:10290000C00101EB0010ABEB8000322101EB0010A5
:102910006421B0FBF1F000F00F00504480B2B060D1
:10292000BDE8FC9FC26822F480520A43C26070472F
:10293000C26822F400420A43C2607047C26822F4AF
:10294000C0620A43C2607047026922F440520A43DF
:102950000261704710B500BF00BF00F10C0353E8DF
:10296000003F23F00C0343EA010200F10C0343E8AB
:102970000024002CF1D100BF10BD000000B597B0BD
:102980001C4B032211461C4805F0C0FE1B4B0322C2
:1029900011461B4805F0BAFE9FED1A0A1A4880ED51
:1029A000000A9FED1A0A1A4880ED000A24221949EC
:1029B0000EA8FDF798FC0EAB032211460CA805F0FB
:1029C000A5FE0D4A0CA9104605F0A4FE24221149CB
:1029D000243103A8FDF787FC03AB0322114601A8AD
:1029E00005F094FE064A114601A805F093FE17B0C3
:1029F00000BD000078000020C00000209C000020E6
:102A0000C8000020B5420B4CD0000020FA97DC35FE
:102A1000D40000206CA0000810B5094B1979186883
:102A2000084B5A6A9047064B197B9868054B5A6ABF
:102A30009047034B197D1869024B5A6A904710BDA5
:102A400018030020B001002010B50C48C078012800
:102A500000D010BD0A4B197918680A4B1A6A9047C2
:102A6000074B197B9868074B1A6A9047044B197DEE
:102A70001869044B1A6A904700BFEAE7E800002093
:102A800018030020B001002010B50B4A117910681E
:102A90000A4A136900229847074A117B9068074A3F
:102AA000136900229847044A117D1069034A13698B
:102AB0000022984710BD000018030020B00100203C
:102AC00000BFFEE770B51348416A0020884787249D
:102AD000104801232246172105680020A84742F626
:102AE00003040C4802232246182105680020A84749
:102AF0000848032142690020904706489FED060AD6
:102B0000C1690020884703480121026A00209047DC
:102B100070BD00005000002000002F4570B5134824
:102B2000416A012088478724104801232246172143
:102B300005681846A84742F683140C48022322462B
:102B4000182105680120A84708480321426901208F
:102B5000904706489FED060AC1690120884703484F
:102B60000121026A0846904770BD00005000002015
:102B70000000FA4470B51348416A02208847872450
:102B8000104801232246172105680220A84742F673
:102B900083040C4802232246182105681846A847DA
:102BA0000848042142690220904706489FED060A22
:102BB000C1690220884703480121026A0220904728
:102BC00070BD0000500000200000484470B513485C
:102BD000416A032088478724104801232246172191
:102BE00005680320A84742F683040C4802232246C6
:102BF000182105680320A8470848042142690320DA
:102C0000904706489FED060AC1690320884703489C
:102C10000121026A0320904770BD0000500000208F
:102C20000000484400BFFEE72DE9F04389B00446A8
:102C300089460A262578B8274FF0F0085DB9134871
:102C4000314682681248904710484246314603692F
:102C50000F4898470CE0012D0AD10C483146826894
:102C60000B48904709483A46314603690848984757
:102C70001E208DF8000000208DF801000548016835
:102C80006846884709B0BDE8F08300004C01002089
:102C900000480040D801002070B58AB005460E46B5
:102CA000084948688047044606F0B6FD1C208DF8A8
:102CB000040000208DF805000348016801A888473A
:102CC0000AB070BDA4040020D80100202DE9F04115
:102CD00004460D462078FF2802D16078FF2802D0F4
:102CE0000120BDE8F081062D01DA0120F9E7E07846
:102CF000001DA84201D00120F3E7E078801E611D8D
:102D00000F5C2046FDF78DFC0646B74201D001203E
:102D1000E7E70020E5E72DE9F04104460D4620787D
:102D2000FF2802D16078FF2802D00120BDE8F081A1
:102D3000052D01DA0120F9E7A078C01CA84201D0D6
:102D40000120F3E7A178891E201D475CA01CFDF738
:102D50007FFC0646B74201D00120E7E70020E5E707
:102D60007FB504460D460B486A462946036820464F
:102D7000984707E04FF0805007490860BFF34F8F36
:102D8000BFF36F8F9DF800000028F3D09DF801007D
:102D900004B070BD8001002004ED00E07FB5044662
:102DA0000D460B486A46294603682046984707E0C7
:102DB0004FF0805007490860BFF34F8FBFF36F8F0C
:102DC0009DF800000028F3D09DF8010004B070BD0C
:102DD0008001002004ED00E070B504460D464FF47C
:102DE00000410248FFF7DCFA70BD0000000C024011
:102DF000F0B587B006460D461446124800680168D3
:102E0000304688470746FF208DF804008DF80500FE
:102E10008DF8065002208DF8070001208DF808007B
:102E200001A8FDF7FEFB8DF80900059401208DF83F
:102E300018000020207001A9384604F02BFD07B0CF
:102E4000F0BD00007C01002070B5002004461DE1AB
:102E5000C4EBC4028F4B53F82210C4EBC40203EB43
:102E6000820250680A690240824201D1012200E0D8
:102E70000022C4EBC400874901EB8000007A82EA9B
:102E80000005C4EBC40001EB8000406945EA400046
:102E9000C4EBC4017F4A02EB81014861C4EBC4006A
:102EA000114601EB8000007C012802D0022841D1AC
:102EB0001FE0C4EBC400774901EB8000007D00F007
:102EC0000F00A8B90220C4EBC401724A02EB8101D1
:102ED0000874C4EBC400114601EB8000C06838B12F
:102EE000C4EBC40001EB80000121C268204690477A
:102EF00062E0C4EBC400674901EB8000007D00F094
:102F00000F000F2815D10120C4EBC401614A02EB68
:102F100081010874C4EBC400114601EB8000C06855
:102F200038B1C4EBC40001EB80000021C268204628
:102F3000904741E0C4EBC400564901EB8000007D9E
:102F400000F00F00B0B90220C4EBC401514A02EBFB
:102F500081010874C4EBC400114601EB8000C06815
:102F600038B1C4EBC40001EB80000121C2682046E7
:102F7000904721E0C4EBC400464901EB8000007D8E
:102F800000F00F000F2816D10120C4EBC401414A04
:102F900002EB81010874C4EBC400114601EB800010
:102FA000C06838B1C4EBC40001EB80000021C268E6
:102FB0002046904700E000BF00BFC4EBC400354985
:102FC00001EB8000007C012802D0022852D12CE0C5
:102FD000C4EBC4002F4901EB80008069B0F57A7F13
:102FE0000DD1C4EBC40001EB8000C06838B1C4EB64
:102FF000C40001EB80000321C26820469047C4EB67
:10300000C400244901EB80008069B0F57A7F0BD8B9
:10301000C4EBC40001EB80008069401CC4EBC40118
:103020001C4A02EB810188612CE0C4EBC400194901
:1030300001EB80008069A8B1C4EBC40001EB800003
:103040008069B0F57A7F0DD8C4EBC40001EB800035
:10305000C06838B1C4EBC40001EB80000221C26833
:10306000204690470020C4EBC4010A4A02EB8101CC
:10307000886107E00020C4EBC401064A02EB81012D
:10308000886100BF00BF601CC0B20446072CFFF679
:10309000DFAE70BD8C2300202DE9FE4F06460C46A6
:1030A00017461D46DDE90D9ADDF83080214806609F
:1030B000B8F1300F02D3BAF1240F01D2BDE8FE8F70
:1030C0006561C4F81C901020A061206205F1180B06
:1030D00009F1120002901820B8FBF0F0401E019098
:1030E0001220BAFBF0F0401E00901823594604F15C
:1030F0002400019AFDF7D1FF122304F13C00009A4D
:103100000299FDF7CAFF0020E065206617B1012F84
:103110000AD104E00848E0660848206705E008484E
:10312000E0660848206700E000BF00BF0648A066D0
:1031300000BFC3E77C010020B97F0008257E00089E
:103140003D800008157F0008657F00082DE9FE4FCF
:1031500006460C4617461D46DDE90D9ADDF830801F
:1031600027480660B8F1460F02D3BAF1460F01D2E4
:10317000BDE8FE8F6561C4F81C902420A061206228
:1031800005F1240B09F124000290A8F1240022216A
:10319000B0FBF1F00190AAF12400B0FBF1F0009037
:1031A0002223594604F12400019AFDF776FF2223D9
:1031B00004F13C00009A0299FDF76FFF0020E065E2
:1031C000012020660F48A06617B1012F14D104E03A
:1031D0000D48E0660D4820670FE00D48E0660D4899
:1031E000206755222421E069FDF78FF80448006824
:1031F00081682046884700E000BF00BF00BFB7E7F6
:10320000F0020020A97F00080D800008D97E000888
:1032100041800008197F00082DE9FE4F06460C4644
:1032200017461D46DDE90D9ADDF83080244806601A
:10323000B8F1220F02D3BAF1220F01D2BDE8FE8FFE
:103240006561C4F81C901020A061206205F1110B8B
:1032500009F1110002901120B8FBF0F0401E01901E
:103260001120BAFBF0F0401E00901123594604F1E2
:103270002400019AFDF711FF112304F13C00009A8C
:103280000299FDF70AFF0020E065012020660D4845
:10329000A06627B1012F03D0022F07D101E006E07D
:1032A00005E00948E0660948206700BF00BF00BF8D
:1032B0000348006881682046884700BFBEE70000D9
:1032C00004040020AD7F000811800008DD7E0008A6
:1032D00030B589B004460D4604210C48FFF760F86C
:1032E00002208DF8000005208DF8020015218DF8D0
:1032F000031025218DF8041003208DF801000448E7
:1033000001686846884709B030BD000000000240EF
:10331000D8010020F0B585B007460E4614461F4878
:10332000006801683846884705465CB100201C49A2
:1033300008704FF47A7104FB01F0184909684A6972
:103340002946904728E005F13C00FDF7AFFEA0B10B
:10335000694605F13C00FDF7C7FE24B10F4800683F
:103360008169284688479DF8102069463046FCF759
:10337000BAFF9DF8100005B0F0BD14B10848007800
:1033800000B90CB90020F6E74FF0805005490860FD
:10339000BFF34F8FBFF36F8FD5E700000404002009
:1033A0000804002004ED00E02DE9F04387B08046DA
:1033B0000C4615461E460E9F14480068016840469C
:1033C00088478146FF208DF804008DF805008DF8B0
:1033D000064004208DF8070002208DF808008DF8C3
:1033E00009508DF80A6001A8FDF71BF98DF80B0054
:1033F000059701208DF818000020387001A9484673
:1034000004F048FA07B0BDE8F08300007C0100201A
:103410007047704730B5DDE9034530BD70B58AB0FF
:1034200004460E4609480460094948688047054635
:1034300006F0F2F909208DF8040000208DF805004F
:103440000448016801A888470AB070BD90030020B5
:10345000E0030020D80100202DE9F0418CB00646A1
:1034600088463578012D01D1052404E0022D01D1D3
:10347000062400E004242F46204802AA3946436966
:103480001F4898471D4801AA214643691C48984790
:1034900000200090BDF80800172801DB012000E0A3
:1034A0000020BDF808101B2901DC012100E00021EB
:1034B0000840BDF80410842901DB012100E000214F
:1034C0000840BDF80410892901DC012100E0002139
:1034D000084008B1012000900DF10E01684605F08A
:1034E00007F80D208DF80C0001208DF80D0005481F
:1034F000016803A888470CB0BDE8F0814C010020AA
:1035000000480040D801002010B50446606E00F06D
:1035100001F810BD002100EB4002024B43F82210DD
:10352000704700002419002010B504466069407DF2
:10353000401E616948756069C078011D02480068D5
:1035400042682046904710BD7C01002000B58BB03A
:103550004FF48050FEF7ACFD4FF48050FEF7B0FD05
:103560004FF48050FEF796FD01A8FEF776FF01208C
:103570000590022004904FF4827002904FF4007086
:1035800006900020079001A90648FEF713FF00BF30
:103590000448006840F040000249086000BF0BB0DA
:1035A00000BD00000030014070B504461F480068AF
:1035B000A0431E49086006F0A5F810211C48FEF73C
:1035C000DBFE1A4801781B48FEF756FF17480088B3
:1035D000C0F3072500BF1748FEF731FF0028FAD0D7
:1035E00029461448FEF748FF10480068C0F3074515
:1035F00000BF1048FEF723FF0028FAD029460D48E7
:10360000FEF73AFF00BF0B48FEF719FF0028FAD07B
:1036100000BF0848FEF709FF0028FAD1102104482E
:10362000FEF7B8FE06F098F870BD0000F00000202C
:10363000000002400030014070B504461F48006899
:1036400020431E49086006F05DF810211C48FEF773
:1036500093FE1A4801781B48FEF70EFF17480088B2
:10366000C0F3072500BF1748FEF7E9FE0028FAD08F
:1036700029461448FEF700FF10480068C0F30745CC
:1036800000BF1048FEF7DBFE0028FAD029460D489F
:10369000FEF7F2FE00BF0B48FEF7D1FE0028FAD07D
:1036A00000BF0848FEF7C1FE0028FAD110210448E7
:1036B000FEF770FE06F050F870BD0000F00000202C
:1036C000000002400030014010B54FF48040FEF78A
:1036D000E1FC4FF08050FEF7BFFC10BD10B5029C1E
:1036E00010BD000010B50446024821460268024899
:1036F000904710BDF40200200010014030B589B0A1
:1037000005460C4620788DF801006078801CC0B218
:103710008DF800006278A11C0DF10200FCF7E3FDBA
:103720006846FCF795FF62780DF1020188546946FE
:10373000284604F0D9F809B030BD00002DE9FF415A
:1037400005460E461446C4EB84204FF4967190FB58
:10375000F1F080B2029003A902A804F0BDFE00209F
:103760000221CDE90010044803AB1E2231468768D0
:103770002846B847BDE8FF818001002090ED000A8F
:10378000054981ED000A90ED010A81ED010A90EDF5
:10379000020A81ED020A70477423002070B50546C5
:1037A0000C4604F07F0201230921284600F00EF99F
:1037B00070BD000070B52DED028B0546B0EE408A5D
:1037C0009FED0F0AB4EEC08AF1EE10FA0DDB9FED0B
:1037D0000C0A38EE400ADFED0A0A80EE201ABCEE31
:1037E000C10A10EE100AC4B200E0002404F07F0207
:1037F00001230921284600F0E9F8BDEC028B70BDD9
:103800000000FA4170B504460D4645B1084A52F829
:103810002410084A52F82400FEF7BAFD07E0044AD3
:1038200052F82410034A52F82400FEF7A2FD70BD9E
:10383000400000203000002077B583B004460D46DC
:1038400000200121CDE90010044805AB03222946E0
:1038500086682046B04706B070BD00008001002099
:1038600077B583B004460D4600200121CDE9001054
:10387000044805AB0A46294686682046B04706B08C
:1038800070BD000080010020FEB504460D4607A073
:103890000068029000200421CDE90010044802AB2A
:1038A0000622294686682046B047FEBD0000FF0379
:1038B0008001002070B504460D4605EB85004600EA
:1038C0000CB9012000E00020012C01D1012100E011
:1038D00000210843022C01D1012100E0002108430E
:1038E000032C01D1012100E00021084310B10A207E
:1038F000B5FBF0F53146204601F0AEF870BD000092
:1039000077B583B004460D46BDF91400002805DAEA
:10391000BDF91400C0F5806000B2059002A905A8A9
:1039200004F0DAFD00200221CDE90010044802ABCA
:103930002022294686682046B04706B070BD0000A8
:103940008001002070B58AB004460E46257809A98A
:10395000601CFCF757FEBDF8240020B90D48016932
:103960002846884709E00B48C16828468847094827
:10397000BDF8241042682846904712208DF80000B8
:1039800000208DF8010004480168684688470AB0A5
:1039900070BD0000DC020020D801002070B5054693
:1039A0000C46642C00D970BD074951F82500C16A46
:1039B000491C61436420B1FBF0F63146284601F012
:1039C0004BF800BFEFE700001C0200202DE9F0419A
:1039D00004460E4617461D4605F094FE2021244855
:1039E000FEF735FD234A52F82410234A52F82400EA
:1039F000FEF7BFFC06F01F011D48FEF73BFD00BFB0
:103A00001B48FEF70DFD0028FAD11EE0194A52F8B6
:103A10002410194A52F82400FEF7BAFC681EC5B2F9
:103A2000144A52F82410144A52F82400FEF7A1FC5C
:103A3000E80027FA00F0C1B20D48FEF71BFD00BFF9
:103A40000B48FEF7EDFC0028FAD1002DDEDC094A18
:103A500052F82410084A52F82400FEF799FC00217D
:103A60000348FEF7F4FC05F077FEBDE8F0810000A6
:103A70000030014020000020100000207FB584B0FD
:103A800004460D4602A906A804F02CFD03A907A8C8
:103A900004F028FD00200821CDE90010044802AB05
:103AA0000422294686682046B04708B070BD000051
:103AB0008001002030B58DB004460D4601A9204696
:103AC000FCF7A6FD02A9201DFCF7A2FD03A904F145
:103AD0000800FCF79DFD0848416801A888470620BA
:103AE0008DF8100000208DF811000448016804A82A
:103AF00088470DB030BD000000030020D801002031
:103B000030B58DB004460D4601A92046FCF780FD76
:103B100002A9201DFCF77CFD03A904F10800FCF7B5
:103B200077FD0848C16801A8884704208DF8100077
:103B300000208DF811000448016804A888470DB0E2
:103B400030BD000000030020D80100202DE9F0471F
:103B500007460C4615461E46DDF82080281B00FB54
:103B600008F0B0FBF6F000EB04094946384600F0D7
:103B700073FFBDE8F08700003EB504460D48694676
:103B80004268204690470C4D2979009A28680B4DD1
:103B90002B699847084D297B019AA868074D2B6926
:103BA0009847054D297D029A2869044D2B6998474D
:103BB0003EBD0000D800002018030020B001002006
:103BC00070B505460C4604F0070040F0880201235A
:103BD00016212846FFF7FAFE70BD000077B583B0C6
:103BE00004460D4602A905A804F07CFC002004212F
:103BF000CDE90010044802AB102229468668204611
:103C0000B04706B070BD00008001002077B583B0DA
:103C100004460D4602A905A804F064FC0020042116
:103C2000CDE90010044802AB1422294686682046DC
:103C3000B04706B070BD000080010020FEB504460C
:103C40000D46002002900421CDE90010034802AB8C
:103C50000622294686682046B047FEBD8001002026
:103C60000021034A42F82010024A42F8201070470F
:103C7000D0220020C022002070B505460C46234605
:103C80002846D4E9191200F001F870BD70B564241B
:103C9000B0FBF4F401EB4105124E46F8254001EB70
:103CA0004104354605EB8404626001EB410405EBF9
:103CB0008404A3600C4C247894B901240A4D2C7020
:103CC00000BF0A4C246844F00104084D2C6000BF7A
:103CD00000BF2C46E46844F00104EC6000BF00BF64
:103CE00070BD0000241900203C010020002000408D
:103CF00070B58AB004460E46257814488169284676
:103D0000884709A9601CFCF789FC099820B90F486D
:103D10004169284688470CE00C48016928468847D5
:103D20000A48016828468847084842682846099991
:103D3000904713208DF8000000208DF80100044802
:103D40000168684688470AB070BD00000002002084
:103D5000D801002070B58AB005460E46084948686B
:103D60008047044605F058FD1A208DF80400002015
:103D70008DF805000348016801A888470AB070BDA6
:103D800070040020D801002030B589B004460D46EB
:103D90000849C86A0DF1020104F0AAFB1B208DF846
:103DA000000001208DF8010003480168684688473B
:103DB00009B030BD90030020D801002030B587B095
:103DC00005460C462B460122032105A804F09EFC63
:103DD0006B460122032103A804F098FC03AA05A95D
:103DE000114804F097FC9DED000A1048D0ED000A40
:103DF00020EE200ABDEEC00A84ED000A9DED010A06
:103E0000D0ED000A20EE200ABDEEC00A84ED010AC2
:103E10009DED020AD0ED000A20EE200ABDEEC00A98
:103E200084ED020A07B030BDC0000020D0000020A1
:103E30002DE9F04104460D4616461F462946204608
:103E4000FEF746F900BF0F48405D2044C66000BF42
:103E500000BF0C48405D204440686FF30F003843BA
:103E60000849495D2144486000BF00BF0548405DE6
:103E7000205840F001000349495D605000BFBDE893
:103E8000F0810000DFA0000830B589B004460D467F
:103E90000849886C0DF1020104F02AFB21208DF8FD
:103EA000000001208DF8010003480168684688473A
:103EB00009B030BD90030020D801002038B5044679
:103EC000206E18B9D4E91501FEF759FA206800BF31
:103ED00000BF00BF00F10C0252E8002F42F00401C5
:103EE00000F10C0242E80013002BF3D100BF00BF29
:103EF00020680168009100BF4168009100BF00BFC9
:103F000020686FF02001016000BF2068FEF7E7FB2A
:103F1000D4E90723D4E90301FFF78AFF206800BF33
:103F200000BF00BF00F10C0252E8002F42F0100168
:103F300000F10C0242E80013002BF3D100BF00BFD8
:103F400038BD70B504460D46206E20B9D4E9150180
:103F5000816100BF00BF206800BF00BF00BF00F14B
:103F60000C0252E8002F42F0080100F10C0242E876
:103F70000013002BF3D100BF00BF2068FEF7B7FB92
:103F80002B466269D4E90101FFF752FF206800BFA8
:103F900000BF00BF00F10C0252E8002F42F04001C8
:103FA00000F10C0242E80013002BF3D100BF00BF68
:103FB00070BD000070B504460D46174850F8240047
:103FC000A84200D170BD154840F8245050F8240094
:103FD000114951F82410884204DD11480121026A78
:103FE000204690470D4850F824000B4951F8241002
:103FF000884204DA0A480021026A20469047214696
:10400000084800F0D5FC0748FEF755FA2146054858
:1040100000F00AFD00BFD5E7D0220020C02200201A
:10402000500000200000014010B50446214605481C
:1040300000F0A2FC0348FEF73EFA2146014800F0DA
:10404000EBFC10BD0000014010B5FEF7E5FC10BD13
:1040500070B505460C4600BF0648005D285820F0A4
:1040600001000449095D685000BF21462846FEF75B
:104070002FF870BDDFA0000810B50446206800BF0F
:1040800000BF00BF00F10C0252E8002F22F0040133
:1040900000F10C0242E80013002BF3D100BF00BF77
:1040A000D4E90301FFF7D4FF206800BF00BF00BFC1
:1040B00000F10C0252E8002F22F0100100F10C0276
:1040C00042E80013002BF3D100BF00BF10BD10B5B4
:1040D0000446206800BF00BF00BF00F10C0252E898
:1040E000002F22F0080100F10C0242E80013002B1F
:1040F000F3D100BF00BF206E18B9D4E91501FEF757
:104100003EF9D4E90101FFF7A3FF206800BF00BF1B
:1041100000BF00F10C0252E8002F22F0400100F134
:104120000C0242E80013002BF3D100BF00BF10BD0A
:1041300070B58AB004460E4625780848C1682846FE
:10414000884713208DF8040000208DF805000448EE
:10415000016801A888470AB070BD00000002002075
:10416000D801002070B58AB004460E462578012D8E
:1041700006D12805FFF760FAA804FFF75DFA08E00A
:104180003DB94FF48010FFF70FFA4FF48020FFF78E
:104190000BFA1F208DF8040000208DF8050003485D
:1041A000016801A888470AB070BD0000D80100204E
:1041B0002DE9FF4F87B00F4616469846DDE914B447
:1041C000DDF85890284800680168079888470690ED
:1041D000FF208DF800008DF80100FE208DF8020010
:1041E000601C7043001DC0B28DF8030083208DF861
:1041F00004008DF805808DF80640601C00F0FF0A71
:1042000000BF701EC5B27A5D0AFB05F0801C0DF17F
:1042100005010A5404FB05B10AFB05F2D21C0DF19D
:104220000503D0182246FCF75EF80020C5EBC50157
:1042300009F81100301EA6F10101CEB2E1D16846A5
:10424000FCF7EFF99DF80310891E0DF1050250549B
:10425000CDF8109000208DF814006946069803F000
:1042600019FB0BB0BDE8F08F7C01002010B500BF3A
:10427000B02080F31188BFF34F8FBFF36F8F00BF63
:1042800005F0BCFD18B14FF080500449086000BF34
:10429000002080F3118800BF10BD000004ED00E095
:1042A00070B54FF08050FDF7D7FE4FF48040404985
:1042B000096821F4804101433D4A116000BF052097
:1042C0003C49096821F0070101433A4A116000BFE7
:1042D00000BF3948006840F480303749086000BFAB
:1042E00000BF00BF34480068C0F340400028F8D049
:1042F0004FF480000821A822002340EA010444EA88
:1043000082142D4D2D1D2D682C4E35402C432A4DE9
:104310002D1D2C602C46246824F440341C432C6052
:1043200000BF030140EA010444EA82141C432D68E3
:10433000234E35402C43204D2D1D2C6000BF00BF67
:10434000281F006840F08070291F086000BF00BF70
:1043500000BF19480068C0F340600028F8D0002072
:1043600015490831096821F0F0010143124A083269
:10437000116000BF4FF4A0501146096821F4E051CC
:104380000143116000BF4FF400401146096821F459
:1043900060410143116000BF02201146096821F00D
:1043A00003010143116000BF00F00CF870BD000074
:1043B00000700040003C0240003802400080BFFF17
:1043C0000080BFF070B500200022022300240221EB
:1043D000274D2D6805F00C0020B1042806D00828D0
:1043E00034D107E0234D244E356033E0214D224E79
:1043F00035602FE01E4D2D1F2D68C5F380541C4DD8
:104400002D1F2D6805F03F0154B11A4DB5FBF1F594
:10441000174E361F3668C6F3881605FB06F209E00C
:10442000144DB5FBF1F5124E361F3668C6F38816EB
:1044300005FB06F20E4D2D1F2D68C5F301456D1CC1
:104440006B00B2FBF3F50C4E356003E0094D0A4EEC
:10445000356000BF00BF064D2D68C5F30315074E3C
:10446000705D054D2D68C540034E356070BD000080
:10447000083802400024F400C804002012A10008FB
:104480000348006840F4700001490860704700006C
:1044900088ED00E010B54FF48070FDF7EBFD4FF4B0
:1044A0008070FDF7EFFD4FF48070FDF7D5FD002122
:1044B0001148FEF712F900210F48FEF708F9002114
:1044C0000D48FEF702F90C48FDF7E1FF42F2D0017A
:1044D0000948FEF7EBF800BF0748006820F001002C
:1044E0000549086000BF03212D2004F0A3F82D200A
:1044F00004F092F810BD00000020004010B500F05C
:1045000001F810BD10B5002443E02146224800F018
:1045100093FAD8B32146204800F078FA21461E4885
:1045200000F062FA90B31D4850F824001C4951F87D
:104530002410884207DD194850F82400401E17490E
:1045400041F8240023E0154850F82400144951F89C
:104550002410884207DA114850F82400401C0F4903
:1045600041F8240013E00D4850F824000C4951F89C
:10457000241088420AD12146074800F0FDF9064878
:10458000FDF799FF2146044800F046FA00BF601C81
:10459000C4B2042CB9DB10BD00000140C0220020D1
:1045A000D022002010B50120FDF782FD0120FDF78B
:1045B00087FD0120FDF76EFD00214748FEF77EF8DC
:1045C00001214548FEF789F800214348FEF770F8BD
:1045D0004148FDF757FF4048FDF777FF00213E486F
:1045E000FEF775F800213C48FEF76FF83A48FDF7F2
:1045F0004EFF42F210713848FEF758F84FF48051E0
:104600003548FDF7EBFF4FF480713348FDF7E6FFC7
:1046100010213148FDF7E2FF01212F48FDF7DEFFB1
:1046200060224FF480512C48FEF70AF860224FF4C4
:1046300080712948FEF704F8602210212648FDF712
:10464000FFFF602201212448FDF7FAFF00224FF40A
:1046500080512148FDF744FF00224FF480711E482D
:10466000FDF73EFF002210211B48FDF739FF002215
:1046700001211948FDF734FF41F2883016490864DA
:1046800000BF01461448FDF7D9FF41F288301249B6
:10469000886300BF00BF486300BF89140E48FDF760
:1046A000EDFE4FF480710C48FDF7E8FE10210A483A
:1046B000FDF7E4FE01210848FDF7E0FE0648FDF79E
:1046C000F0FE0548FDF7E8FE01211B2003F0B2FFD4
:1046D0001B2003F0A1FF10BD0000014010B5042015
:1046E000FDF7C8FC0420FDF7CDFC0420FDF7B4FC69
:1046F00000213148FDF7E2FF00212F48FDF7EDFFD3
:104700002D48FDF7BFFE00212B48FDF7E0FF0021FB
:104710002948FDF7DAFF2848FDF7B9FE40F2CF71CE
:104720002548FDF7C3FF602201212348FDF788FFDC
:10473000602210212048FDF783FF60224FF4807132
:104740001D48FDF77DFF60224FF480511A48FDF7A8
:1047500077FF002201211848FDF7C2FE0022102138
:104760001548FDF7BDFE00224FF480711248FDF799
:10477000B7FE00224FF480510F48FDF7B1FE012132
:104780000D48FDF7FBFE10210B48FDF7F7FE4FF437
:1047900080710948FDF7F2FE4FF480510648FDF79D
:1047A000EDFE0548FDF791FE0348FDF77AFE02484D
:1047B000FDF772FE10BD00000008004010B5082093
:1047C000FDF758FC0820FDF75DFC0820FDF744FCD0
:1047D00000213148FDF772FF53212F48FDF77DFF7F
:1047E0002D48FDF74FFE00212B48FDF770FF0021FB
:1047F0002948FDF76AFF2848FDF749FE44F61F6186
:104800002548FDF753FF602201212348FDF718FFDB
:10481000602210212048FDF713FF60224FF48071C1
:104820001D48FDF70DFF60224FF480511A48FDF737
:1048300007FF002201211848FDF752FE0022102137
:104840001548FDF74DFE00224FF480711248FDF728
:1048500047FE00224FF480510F48FDF741FE012131
:104860000D48FDF78BFE10210B48FDF787FE4FF436
:1048700080710948FDF782FE4FF480510648FDF72C
:104880007DFE0548FDF721FE0348FDF70AFE0248BC
:10489000FDF702FE10BD0000000C004010B503F053
:1048A0001DFD10BD00B58FB00220FDF701FC0220F8
:1048B000FDF706FC0220FDF7EDFB00212C48FDF77B
:1048C000FDFE00212A48FDF708FF00212848FDF7DA
:1048D000EFFE2748FDF7D6FD00212548FDF7F7FE3E
:1048E00000212348FDF7F1FE2148FDF7D0FDD2213C
:1048F0001F48FDF7DBFE4FF480711D48FDF76EFE8B
:1049000060224FF480711A48FDF79AFE00224FF49E
:1049100080711748FDF7E4FD02211548FDF78EFE72
:104920001348FDF7D2FD1248FDF7B6FD1048FDF71C
:10493000BDFD6846FDF770FC402002900C483C30FD
:104940000090C014069040100590C00007904FF0F2
:10495000606009906A4601210648FDF7E3FB0521E6
:10496000392003F067FE392003F056FE0FB000BD7A
:104970000004014000640240026A034B53F82130F6
:104980009A43026270470000E0010020064951F896
:1049900020100968054A52F820209143024A52F833
:1049A00020201160704700007C0200203C020020A3
:1049B000026A034B53F821301A4302627047000029
:1049C000E0010020064951F820100968054A52F814
:1049D00020201143024A52F8202011607047000045
:1049E0007C0200203C0200200246106A064B53F86D
:1049F00021301840044B53F82130984201D1012056
:104A000070470020FCE70000E00100204A1C012361
:104A10009340DA430261704710B5C2684B1C012411
:104A20009C40A243C26010BD10B5C2684B1C01245B
:104A30009C402243C26010BD10B5024610694B1C59
:104A400001249C40204001249C40A04201D101202F
:104A500010BD0020FCE70000024A52F8202011603F
:104A6000704700005C02002030B587B004460D4658
:104A700094ED000AB8EEC00A1648D0ED000A80EEA8
:104A8000201A8DED001A94ED010AB8EEC00AD0ED9F
:104A9000000A80EE201A8DED011A94ED020AB8EE9C
:104AA000C00AD0ED000A80EE201A8DED021A2B46C6
:104AB0000122032105A803F029FE6B4601220321F0
:104AC00003A803F023FE05AA03A9034803F022FE6E
:104AD00007B030BDD0000020C800002008B500BFDE
:104AE000642004F06BFE094908688047084908689B
:104AF000804709E005F07CF9009005494869804746
:104B00000A21684605F008F9F4E70000D800002003
:104B1000000300208AB002F0E3FD642004F04EFEA2
:104B200022E013E09DF80400104951F8200068B11C
:104B30009DF80400402809DA9DF805109DF804004E
:104B40000A4B53F820200DF10600904708484168B1
:104B500001A888470028E5D14FF08050054908603A
:104B6000BFF34F8FBFF36F8FDBE70000C021002042
:104B7000D801002004ED00E01CB52648009026482E
:104B800000234FF40042254904681846A0472148F5
:104B90000090214800234022214904680120A047B9
:104BA0001C4800901C48002320221D490468022054
:104BB000A0471848009018480023042218490468A8
:104BC0000320A047134800901348002310221449E3
:104BD00004680420A0470F4800900F4800230822D3
:104BE0000F4904680520A0470A4800900A4800239E
:104BF00001220B4904680620A04709E005F0F8F8F7
:104C00000190054988688047012101A805F084F8D2
:104C1000F4E70000ED060008300300200008024021
:104C20000010024000202249087001200871142061
:104C300004F0C4FD3AE0FDF727FFFDF705FF07E0AC
:104C40004FF080501B490860BFF34F8FBFF36F8F49
:104C5000174800780028F3D005F0CAF8044613E09E
:104C600005F0C6F8001B1449884205D310480079A6
:104C700010B9FFF7E9F90BE04FF080500D490860DB
:104C8000BFF34F8FBFF36F8F094800780128E7D03B
:104C900000BF07E04FF0805006490860BFF34F8F18
:104CA000BFF36F8F024800780128F3D0C3E70000FC
:104CB000E800002004ED00E0A08601002CE0174988
:104CC00048688047814604F04BFE28274FF097083C
:104CD000134800680578012D01D1062404E0022D57
:104CE00001D1052400E004242E460E483146826896
:104CF0000D4890470B482822314603690A489847D7
:104D0000084821468268084890470648972221466D
:104D100003690548984700BFD1E700005803002009
:104D2000900300204C010020004800402CE017496F
:104D300048688047814604F013FE16274FF0870825
:104D4000134800680578012D01D1052404E0022DE7
:104D500001D1062400E004242E460E483146826824
:104D60000D4890470B481622314603690A48984778
:104D7000084821468268084890470648872221460D
:104D800003690548984700BFD1E70000E003002011
:104D9000900300204C0100200048004008B5032487
:104DA0002FE01848006804F0DBFD174840690178DF
:104DB00016486A4603681648984712E01248406948
:104DC000017812486A460368114898470E4A92696A
:104DD00011680D4A5269107804F0FEF80F2004F0B3
:104DE000EDFC094989690968009A501A002801DB1D
:104DF000014600E04142A142E0DC01200249896A0B
:104E00000870CEE7E803002090030020FC03002098
:104E1000005000402BE01648006804F0A1FD082077
:104E2000144A516920EA010201EA000342EA0342FE
:104E3000104B9A6100BF08E00F48006A016801202A
:104E400004F034FB0F2004F0B9FC0B49096C09682D
:104E5000094A126A1268881A002801DB014600E03C
:104E600041420329E8DC01200349496B0870D2E77D
:104E70001804002000000240900300202BE0164898
:104E8000006804F06DFD0820144A516920EA01020F
:104E900001EA000342EA0342104B9A6100BF08E0B6
:104EA0000F48406A0168022004F070FB0F2004F0F4
:104EB00085FC0B49496C0968094A526A1268881ACC
:104EC000002801DB014600E041420329E8DC012023
:104ED0000349896B0870D2E72404002000000240D7
:104EE0009003002045E02348006804F039FD224883
:104EF000224A00210368224898471F48214A01217D
:104F000003681F48984716E01B481C4A00210368A5
:104F10001B48984718481B4A0121036818489847BE
:104F2000194A126A1168184AD269106804F072F9B5
:104F30000F2004F043FC144AD26912680F4B1B681F
:104F4000991A002901DB0A4600E04A42032ADBDC09
:104F50000D4A126A12680B4B1B68981A002801DB75
:104F6000024600E04242032ACEDC01200649096BDA
:104F70000870B8E730040020FC030020340400204F
:104F800000500040380400209003002086B001F05B
:104F900060B9FE48006804F0E3FC0020FC49C96ADF
:104FA00008700120FA4909680870FA4840680490BE
:104FB0008047059004F030FC0220F549096808702C
:104FC000F448406804908047059004F025FC0320D5
:104FD000EF4909680870EF484068049080470590E1
:104FE00004F01AFC4FF4967004F0E8FB0220E84944
:104FF00049690870E8480068E54989690860002047
:10500000E349896A0870E548406804908047059044
:1050100004F002FC00BFDE48806A00780028FAD065
:10502000322004F0CBFBDE48806804210590DD4887
:10503000059A9047DA480069972204210590D948DB
:10504000059B9847D648806805210590D548059A64
:105050009047D3480069972205210590D148059BC8
:105060009847CF48806806210590CE48059A90471A
:10507000CB480069972206210590CA48059B9847AE
:10508000C7484069C84A04210590C648059B98470F
:10509000C3484069C54A05210590C248059B984709
:1050A000BF484069C24A06210590BE48059B984703
:1050B00017E0BB484069BC4A04210590B948059BEC
:1050C0009847B7484069B94A05210590B548059BFE
:1050D0009847B3484069B64A06210590B148059BF8
:1050E0009847B1480088C0F197000390002801DB81
:1050F000039801E003984042AE4909888842D8DC11
:10510000AA480088C0F197000490002801DB0498A9
:1051100001E004984042A74909888842C9DCA448B4
:105120000088C0F197000590002801DB059801E098
:10513000059840429F4909888842BADC322004F031
:105140003DFB02209249496908709B4800689049DC
:105150008969086000208E49896A08708F48406814
:1051600004908047059004F057FB00BF8848806A90
:1051700000780028FAD0322004F020FB0120844976
:10518000096808708D48406804908047059004F0D5
:1051900043FB02207E4909680870884840680490F3
:1051A0008047059004F038FB0320794909680870AE
:1051B0008248406804908047059004F02DFB4FF42E
:1051C000967004F0FBFA02207149496908707C4826
:1051D00000686F498969086000206D49896A087014
:1051E0006E48406804908047059004F015FB00BFAE
:1051F0006748806A00780028FAD0322004F0DEFA8E
:1052000000206349496908706E480068404260495F
:105210008969086000205E49896A08705F484068B3
:1052200004908047059004F0F7FA00BF5848806A60
:1052300000780028FAD0322004F0C0FA0120544946
:10524000496908705F4800684042400050498969D8
:10525000086000204E49896A0870504840680490F0
:105260008047059004F0D8FA00BF4948806A00786A
:105270000028FAD0322004F0A1FA022044494969FA
:1052800008704D480068424989690860002040491B
:10529000896A08704148406804908047059004F08E
:1052A000BBFA00BF3A48806A00780028FAD0322062
:1052B00004F084FA012036490968087035484068CE
:1052C00004908047059004F0A7FA0220304909684D
:1052D00008703048406804908047059004F09CFABC
:1052E00003202B49096808702A48406804908047C9
:1052F000059004F091FA4FF4967004F05FFA0220E2
:105300002349496908703048006821498969086063
:1053100000201F49896A087020484068049080472F
:10532000059004F079FA00BF1948806A00780028D7
:10533000FAD0322004F042FA194880680221059020
:105340001848059A904716480069282202210590BE
:105350001448059B9847124880680321059011481E
:10536000059A90470E4800692822032105900D48B0
:10537000059B98470A488068042105900948059ACA
:10538000904707480069972204211FE04404002049
:1053900090030020E003002054040020EC030020D0
:1053A0004C010020004800406604002068040020F2
:1053B0006A0400206C0400205804002058030020D8
:1053C00048040020500400204C0400200590FE48B2
:1053D000059B9847FD48806806210590FA48059A84
:1053E0009047FA480069972206210590F648059BE8
:1053F0009847F6484069F64A02210590F248059B15
:105400009847F2484069F34A03210590EE48059B0E
:105410009847EE484069F04A04210590EA48059B08
:105420009847EA484069ED4A06210590E648059B01
:1054300098471FE0E5484069E54A02210590E248A7
:10544000059B9847E1484069E24A03210590DE4800
:10545000059B9847DD484069DF4A04210590DA48FA
:10546000059B9847D9484069DC4A06210590D648F3
:10547000059B9847D6480088C0F128000290002874
:1054800001DB029801E002984042D5490988884230
:10549000D0DCD0480088C0F128000390002801DB50
:1054A000039801E003984042CD4909888842C1DC55
:1054B000C9480088C0F197000490002801DB0498D7
:1054C00001E004984042C64909888842B2DCC348DA
:1054D0000088C0F197000590002801DB059801E0E5
:1054E00005984042BE4909888842A3DC322004F076
:1054F00065F90120BB49C96A0870BB48006804F01F
:105500002FFA0020B749C96A08700120B549096817
:105510000870B648406804908047059004F07CF914
:105520000220B04909680870B0484068049080477C
:10553000059004F071F90320AA4909680870AB4886
:10554000406804908047059004F066F94FF4967027
:1055500004F034F90220A34949690870A44800689E
:10556000A0498969086000209E49896A0870A1489D
:10557000406804908047059004F04EF900BF9948B8
:10558000806A00780028FAD0322004F017F98F489A
:105590008068042105908C48059A90478B480069E3
:1055A0009722042105908848059B98478748806882
:1055B000062105908448059A9047844800699722FF
:1055C000062105908048059B984780484069824A9B
:1055D000042105907C48059B98477C4840697F4A98
:1055E000062105907848059B98470FE07748406969
:1055F000794A042105907448059B9847734840698F
:10560000764A062105907048059B984772480088A5
:10561000C0F197000490002801DB049801E0049891
:1056200040426F4909888842E0DC6C480088C0F13C
:1056300097000590002801DB059801E0059840429D
:10564000674909888842D1DC4FF4967004F0B6F8B7
:10565000022064494969087067480068614989699E
:10566000086000205F49896A0870624840680490B9
:105670008047059004F0D0F800BF5A48806A00784F
:105680000028FAD0322004F099F8504880680221AE
:1056900005904D48059A90474C4800692822022100
:1056A00005904948059B9847484880680321059024
:1056B0004548059A904745480069282203210590EE
:1056C0004148059B984741484069414A022105905D
:1056D0003D48059B98473D4840693E4A0321059057
:1056E0003948059B98470FE038484069384A0221FD
:1056F00005903548059B984734484069354A032151
:1057000005903148059B984731480088C0F1280032
:105710000490002801DB049801E0049840423049DD
:1057200009888842E0DC2B480088C0F128000590F9
:10573000002801DB059801E00598404228490988C6
:105740008842D1DC322004F039F802202549496929
:1057500008702A48006823498969086000202149A7
:10576000896A08702348406804908047059004F0D7
:1057700053F800BF1B48806A00780028FAD0322016
:1057800004F01CF800201749496908701C4800689B
:1057900014498969086000201249896A087015480F
:1057A000406804908047059004F036F800BF0D482B
:1057B000806A00780028FAD0322003F0FFFF012031
:1057C0000849496908701DE0004800404C0100206C
:1057D0006204002064040020660400206A040020A3
:1057E0006C0400209003002044040020E00300200B
:1057F00054040020EC03002058040020480400203A
:105800004C040020FE4800684042FE498969086057
:105810000020FC49896A0870FB4840680490804772
:10582000059003F0F9FF00BFF648806A0078002871
:10583000FAD0322003F0C2FF0220F2494969087011
:10584000F2480068EF49896908600020ED49896ADB
:105850000870ED48406804908047059003F0DCFF35
:1058600000BFE848806A00780028FAD0322003F0B0
:10587000A5FFE748806803210590E648059A904710
:10588000E3480069162203210590E248059B9847EA
:10589000DF48806806210590DE48059A9047DC487D
:1058A0000069872206210590DA48059B9847D84869
:1058B0004069D94A03210590D648059B9847D448AA
:1058C0004069D64A06210590D248059B98470FE0CB
:1058D000CF484069D04A03210590CE48059B9847A0
:1058E000CB484069CD4A06210590CA48059B984798
:1058F000C9480088C0F116000490002801DB049814
:1059000001E004984042C64909888842E0DCC34867
:105910000088C0F187000590002801DB059801E0B0
:1059200005984042BE4909888842D1DC322003F004
:1059300045FF0220B34949690870BA480068B14977
:10594000896908600020AF49896A0870AE484068DC
:1059500004908047059003F05FFF00BFA948806A6C
:1059600000780028FAD0322003F028FF0020A54953
:1059700049690870A2480068A24989690860002046
:10598000A049896A0870A048406804908047059043
:1059900003F042FF00BF9B48806A00780028FAD0DD
:1059A000322003F00BFF02209649496908709E4897
:1059B000006894498969086000209249896A0870E2
:1059C0009148406804908047059003F025FF00BF90
:1059D0008C48806A00780028FAD0322003F0EEFE6E
:1059E0008B488068012105908A48059A904788482D
:1059F00000691622012105908648059B9847844836
:105A00008068022105908348059A90478048006984
:105A10001622022105907F48059B98477C488068A4
:105A2000032105907B48059A904779480069162222
:105A3000032105907748059B9847754880680521A4
:105A400005907448059A904771480069872205219E
:105A500005907048059B98476D4880680621059021
:105A60006C48059A90476A4800698722062105908C
:105A70006848059B9847664840696C4A0121059033
:105A80006448059B984762484069694A022105902D
:105A90006048059B98475E4840695F4A032105902E
:105AA0005C48059B98475A484069624A0521059021
:105AB0005848059B984756484069584A0621059022
:105AC0005448059B984727E051484069574A0121AF
:105AD00005905048059B98474D484069544A02211B
